:020000040800F2
:10000000A01800204503000843180008FD1300084D
:1000100041180008090B00087D30000800000000AE
:100020000000000000000000000000008502000841
:10003000930B000800000000E1020008212B0008DB
:100040005F0300085F0300085F030008A1270008A2
:100050005F0300085F0300085F0300085F030008F8
:100060005F0300085F0300085F0300085F030008E8
:100070005F0300085F0300085F0300085F030008D8
:100080005F0300085F0300085F0300085F030008C8
:100090005F0300085F0300085F030008950B00087A
:1000A0005F0300085F0300085F0300085F030008A8
:1000B0005F030008A92B00085F0300085F03000826
:1000C0005F0300085F0300085F0300085F03000888
:1000D0005F030008252D0008292E00085F03000893
:1000E0005F0300085F0300085F0300085F03000868
:1000F0005F0300085F0300085F0300085F03000858
:100100005F0300085F0300085F0300085F03000847
:100110005F0300085F0300085F0300085F03000837
:100120005F0300085F0300085F0300085F03000827
:100130005F0300085F0300085F0300085F03000817
:100140005F0300085F0300085F0300085F03000807
:100150005F0300085F0300085F0300085F030008F7
:100160005F0300085F0300085F0300085F030008E7
:100170005F0300085F0300085F0300085F030008D7
:100180005F0300085F03000800F002F800F06BF85E
:100190000AA090E8000C82448344AAF10107DA45E2
:1001A00001D100F060F8AFF2090EBAE80F0013F0C9
:1001B000010F18BFFB1A43F001031847604C000001
:1001C000804C000010F8013B0A4413F0030408BF00
:1001D00010F8014B1D1108BF10F8015B641E05D01B
:1001E00010F8016B641E01F8016BF9D1002D15D0D8
:1001F00010F8014B03F00C030C2BA1EB04040ABF15
:1002000010F8013BA4EB8314A4EB032405F10103D4
:1002100014F8016B5B1E01F8016BF9D5914238BFF0
:1002200010F8013BD1D3704700230024002500269D
:10023000103A28BF78C1FBD8520728BF30C148BF49
:100240000B607047642900F00F81782900F07381FA
:10025000732900F0C683002070471FB504F00CF925
:100260001FBD10B510BD00F0D7FB1146FFF7F5FF1D
:1002700003F0AAFD00F0F5FB03B4FFF7F2FF03BCA7
:1002800000F0FCFB2C4B19680868B0E8F04F80F3D5
:100290000988BFF36F8F4FF0000080F3118870471B
:1002A0000000000008480068006880F308884FF0EC
:1002B000000080F3148862B661B6BFF34F8FBFF3BE
:1002C0006F8F00DF00BF00BF08ED00E0DFF80C001B
:1002D000016841F470010160704700BF88ED00E0E3
:1002E000EFF30980BFF36F8F134B1A681EF0100FE6
:1002F00008BF20ED108A20E9F04F106009B44FF0DC
:10030000500080F31188BFF34F8FBFF36F8F03F05E
:10031000D1FF4FF0000080F3118809BC196808680C
:10032000B0E8F04F1EF0100F08BFB0EC108A80F359
:100330000988BFF36F8F7047040F0020EFF305802B
:10034000704700000948804709480047FEE7FEE77C
:10035000FEE7FEE7FEE7FEE7FEE7FEE7FEE7FEE775
:1003600004480549054A064B704700004D2B00081C
:1003700089010008A0120020A0180020A01400206D
:10038000A01400200FB4044910B503AA029800F08D
:100390002DFB10BC5DF814FB1C0000200FB41CB535
:1003A000084B06AA7B4469460090059800F0EFFAD6
:1003B00004460020694600F0FDFA20461CBC5DF8AA
:1003C00014FB00000D06000070B504468569006846
:1003D000C10601D5302600E02026C00707D070BD39
:1003E000D4E9012130469047206A401C20626D1EEE
:1003F000F6D570BD70B5044685690078C00707D191
:1004000070BDD4E9012120209047206A401C206261
:100410006D1EF6D570BD70B50C460546012A05D097
:100420002878800600D5EA69002302E0012305E070
:100430005B1C934202D2E05C0028F9D1A869E6185F
:10044000C01AA861286A184428622846FFF7BCFF32
:1004500004E0D5E9012114F8010B9047B442F8D328
:100460002846FFF7C7FF70BD2DE9F041064600247E
:1004700010687529314616A510D0AFF3008000280A
:1004800002DA404213A507E031688A0701D512A5B8
:1004900002E0490704D511A5012401E0AFF3008073
:1004A00000210A2206F1240709E0B0FBF2FCB0FBB0
:1004B000F2F302FB1C00303078541846491C002827
:1004C000F3D123462A463046BDE8F04100F001BA98
:1004D000000000002D0000002B00000020000000A4
:1004E000F0B40D460188090502D5214C7C4402E098
:1004F0001F4C7C440E34002100F1240608E002F079
:100500000F071209E75D42EA03721B097754491C81
:1005100052EA0307F3D102780023120704D5702DA5
:1005200006D009B1022311342246F0BC00F0D1B943
:1005300001231034F8E770B504460D4621461068D3
:10054000AFF30080024629462046BDE870400023F4
:10055000C6E7D21D22F00703D3E90023C0E70368F2
:10056000126843F0200303600823C3610023B7E748
:10057000F04800002DE9F05F894604464FF0000A7C
:10058000DFF874B1FB44C0F820A02046E16888473A
:10059000002874D0252806D0D4E901219047206A8C
:1005A000401C2062F1E700265F462046E16888474C
:1005B0002028054607DB312D05D2781910F8200CCC
:1005C00008B10643F1E7B00701D526F00406C4F8E8
:1005D0001CA00027C4F818A02A2D09D0284602F034
:1005E0005DFE38B304EB8708303DC8F8185019E0B9
:1005F00059F8041B204604EB87029161E1688847A3
:10060000012F054618D1E069002820DA26F02006DF
:100610001DE0D8F8180000EB800005EB40003038F2
:10062000C8F818002046E1688847054602F036FE03
:100630000028EED1012F0AD02E2D08D12046E168E6
:1006400088477F1C0546022F46F02006C4DBA069C0
:10065000002803DA404246F00106A061F00701D00D
:1006600026F010066C2D0BD0682D09D04C2D39D0FA
:100670006A2D35D0742D35D07A2D33D016E038E080
:10068000E1682F4620468847B842054609D16C2FBD
:1006900026D04FF48060E16806432046884705462F
:1006A00004E06C2F1AD04FF4807006430DB3A5F10F
:1006B0004100192802D8203546F400664A462946EA
:1006C000204626604E46FFF7BDFD80B101280BD0C5
:1006D000F61D26F0070000F1080956E74020E4E780
:1006E0008020D8E70020D6E706F104094DE7284628
:1006F00052E7206ABDE8F09F8048000040EA01030D
:1007000010B59B070FD1042A0DD310C808C9121FBA
:100710009C42F8D020BA19BA884201D9012010BDF4
:100720004FF0FF3010BD1AB1D30703D0521C07E0C1
:10073000002010BD10F8013B11F8014B1B1B07D125
:1007400010F8013B11F8014B1B1B01D1921EF1D196
:10075000184610BD10B5203AC0F00B80B1E8185013
:10076000203AA0E81850B1E81850A0E81850BFF49B
:10077000F5AF5FEA027C24BFB1E81850A0E818503A
:1007800044BF18C918C0BDE810405FEA827C24BF8E
:1007900051F8043B40F8043B08BF7047D20728BF1C
:1007A00031F8023B48BF11F8012B28BF20F8023B6B
:1007B00048BF00F8012B70474FF000020429C0F039
:1007C000128010F0030C00F01B80CCF1040CBCF183
:1007D000020F18BF00F8012BA8BF20F8022BA1EBD5
:1007E0000C0100F00DB85FEAC17C24BF00F8012BBA
:1007F00000F8012B48BF00F8012B70474FF00002B2
:1008000000B5134694469646203922BFA0E80C5006
:10081000A0E80C50B1F12001BFF4F7AF090728BFE1
:10082000A0E80C5048BF0CC05DF804EB890028BF5D
:1008300040F8042B08BF704748BF20F8022B11F086
:10084000804F18BF00F8012B704700004FF0013CAB
:1008500050F8042B51F8043B9A4221D1A2EB0C032F
:10086000934313EACC1317D150F8042B51F8043BEF
:100870009A4215D1A2EB0C03934313EACC130BD18C
:1008800050F8042B51F8043B9A4209D1A2EB0C0317
:10089000934313EACC13DBD04FF00000704700BF46
:1008A000D01A01BAB1FA81F101F0180122FA01F06F
:1008B000CB40C1F12001DBB2C0B2C01A2CFA01F367
:1008C000D11A914311EAC311E6D1704770477047BE
:1008D00070472DE9F0470D4699469246044600F1CF
:1008E00024080168880604D5E06921F01001216020
:1008F00000E00120A84201DD471B00E00027A169BC
:100900007A1902EB0900081AA0612078C00602D407
:100910002046FFF759FD002608E0D4E901211AF826
:1009200006009047206A401C761C20624E45F4DB8E
:100930002078C0060AD52046FFF746FD06E0D4E938
:10094000012130209047206A401C2062381EA7F108
:100950000107F4DC07E0D4E9012118F8050090470D
:10096000206A401C2062281EA5F10105F3DC204608
:10097000FFF740FD2078000602D50220BDE8F08791
:100980000120FBE701694A1C02610878704700B545
:100990008FB0CDE901310021059105497944CDE9B8
:1009A000031011466846FFF7E5FD0FB000BD0000DB
:1009B000E5FFFFFF0A6802F8010B0A60704710B5F7
:1009C000436913B1AFF3008001E0FFF724FD01207C
:1009D00010BD127800F124010A7000224A70012231
:1009E000EDE711684FF0FF32E9E70000074B70B503
:1009F0000D467B44FFF7CBFF0446284600F008F87D
:100A000010B14FF0FF3070BD204670BD232F0000A5
:100A1000007B00F080007047754600F02BF8AE4672
:100A200005006946534620F00700854618B020B5FA
:100A3000FFF796FCBDE820404FF000064FF000079E
:100A40004FF000084FF0000B21F00701AC46ACE876
:100A5000C009ACE8C009ACE8C009ACE8C0098D46E3
:100A6000704710B50446AFF300802046BDE8104043
:100A7000FFF702BC004870473C12002001491820D3
:100A8000ABBEFEE726000200704710B5142001F04F
:100A9000B9FE800705D10321BDE81040142001F004
:100AA000CDBF10BD7CB50121202001F0BFFA01208F
:100AB0008DF8040000208DF806008DF80700074D22
:100AC0004FF480748DF8050000946946284600F0C4
:100AD0003EFC2146284600F08DFC7CBD00140240FF
:100AE00002490020C1F8A002704700000080424285
:100AF00002490120C1F8A002704700000080424274
:100B00004FF4165002F03AB9FEE72DE9F0410E46D7
:100B1000074615460421052000F02FF880210A2001
:100B200001F08CFF0021012002F0A0FB002405E071
:100B3000395D092002F09AFB641CA4B2B442F7D3D9
:100B40000321012002F092FB4FF47A74052001F09A
:100B500059FE641E2404240C01D04007F6D522203F
:100B600001F050FE2870212001F04CFE6870BDE8B5
:100B7000F0410021012002F079BB70B50C4605461A
:100B800001F040FE20EA04012846BDE8704002F072
:100B90006DBB704710B5402000F014F8002807D056
:100BA000044901204860BDE81040402000F004B82E
:100BB00010BD0000C40E002001490860704700000D
:100BC000143C0140034A0146002012680A4200D04A
:100BD00001207047143C014030B51A4A83790168FE
:100BE00053B313688B431360111D0B680468A34350
:100BF0000B60017911440B68046823430B60114BAF
:100C0000083319680468A14319601C1D2168056830
:100C1000A94321604179102905D011440A68006870
:100C200002430A6030BD19680268114319602168E7
:100C300000680143216030BD0079104402688A4396
:100C4000026030BD003C014010B503F0B7FA4FF42C
:100C5000614002F00FF902F02BFEBDE8104002F0F7
:100C600017BE38B5032002F08FFB4FF6FF70ADF8CA
:100C70000000684602F01CFD10F0FF0F4FF47A747C
:100C80000CD0012002F080FB642002F033FB02F064
:100C9000FFFD204602F02EFB012038BD022002F0AD
:100CA00073FBFFF725FF322002F024FBFFF718FF4C
:100CB000642002F01FFB02F0EBFD204602F01AFB5D
:100CC000002038BD10B504460F220021122000F08C
:100CD00067FF10220021242000F062FF192200216A
:100CE000362000F05DFF1A220021482000F058FF56
:100CF0000F220221122000F053FF10220221242093
:100D000000F04EFF2B220221362000F049FF2C225A
:100D10000221482000F044FF0F220421122000F09D
:100D20003FFF10220421242000F03AFF3322042147
:100D3000362000F035FF34220421482000F030FF37
:100D4000012C1DD0022C35D0032C18D100211023EA
:100D500025A2084600F0C5FF102323A2022100208F
:100D600000F0BFFF102321A20421002000F0B9FFF2
:100D700010231DA20621002000F0B3FF032010BDA8
:100D80000021102319A2084600F0ABFF102316A281
:100D90000221002000F0A5FF102313A2042100204F
:100DA00000F09FFF102310A20621002000F099FF01
:100DB000012010BD002110230BA2084600F091FF76
:100DC00010230AA20221002000F08BFF102306A2AC
:100DD0000421002000F085FF102303A2062100203B
:100DE00000F07FFF022010BD202000002D3E0000FB
:100DF0002DE9F043A1B000F07AFD614D00272F608E
:100E0000DFF88081DFF8809100F0E1FB5D49002090
:100E100001F0AAFB5C49002001F0CCFB98F802101D
:100E2000009198F8013098F8032058A15B48FFF72B
:100E3000B5FA99F802100091584899F8013099F8DC
:100E4000002057A11030FFF7A9FA1023534A0221BE
:100E5000002000F046FF514A1023103204210020E8
:100E600000F03FFF02F0A6FD4E2803D0012021B084
:100E7000BDE8F08349494E488039FFF7E7FC88B365
:100E800046494B484039FFF7E1FC60B32868C8B1D8
:100E90000024102600F0BCFD0223C4F10402194610
:100EA0005C20009600F0E8FEFFF7DBFE002846D04D
:100EB000641CE4B200F075FD012002F03BFA042C42
:100EC000E8D32F6001F0F6F9002848D0102133480C
:100ED000FFF772FC314810211030FFF76DFC02F073
:100EE000D7FC91E700E009E000F016FF4021304810
:100EF000FFF762FC01F070FD2EA235E000F014FD5A
:100F000080216846FFF77AFC03242003802269468B
:100F100002F002F99DF80000FF280BD0694629A0D5
:100F2000FFF730FA80216846FFF768FC641CE4B2E2
:100F3000222CEAD340211E48FFF73EFC1EE000F0C1
:100F4000EBFE01F049FD154920A21031134800F0D5
:100F50007FFA052002F0EEF901F038FDB1E700F06C
:100F6000DBFE01F039FD1DA20C490C48103100F0E8
:100F70006FFA052002F0DEF901F028FD002076E787
:100F8000C80E0020000F0020FC0E00203230256427
:100F90002D253032642D253032640000541100209C
:100FA000253032643A253032643A2530326400000C
:100FB000440F0020426C7565746F6F74684F7065E4
:100FC0006E00000025730D0A0000000046696E6780
:100FD00065727072696E744F70656E0052666964F6
:100FE0004F70656E00000000FEB500242546009598
:100FF0000195029500F07BFC00210A22084600F0D2
:10100000CFFD0B220021122000F0CAFD0C2200218E
:10101000242000F0C5FD0D220021362000F0C0FD87
:101020000E220021482000F0BBFD6E4602F0C2FCFB
:101030004E28FBD023280BD00C2C02D23055641C38
:10104000E4B210236A460421002000F04AFEEDE7D6
:101050000024684602F0AEFEE8B1684602F0FEFDEC
:10106000C0B300F044FC02210422084600F098FDC1
:1010700005220221142000F093FD082202212620DF
:1010800000F08EFD09220221382000F089FD0220A7
:1010900002F050F9ABE700F02AFC042203210E20F5
:1010A00000F07EFD05220321202000F079FD0622BC
:1010B0000321322000F074FD07220321442000F0B8
:1010C0006FFD01F089FC052002F034F901F07EFC8F
:1010D0000020FEBDFFE70420FBE7F8B5012600F085
:1010E00006FC0120FFF7EEFD05464FF47A7702F08B
:1010F00027FC040002D0012C0BD087E00320B6FBB4
:10110000F0F100FB1166761C3046FFF7DBFD05466B
:10111000EDE7012D21D1032002F036F900F05AFC51
:10112000684602F051FA10F0FF0FE0D1BDF8000060
:10113000401C80B202F0A2F910F0FF0F10D0012085
:1011400002F022F902F0A4FB384602F0D3F800F0D6
:10115000CEFB2846FFF7B6FD0546022D0DD026E052
:10116000022002F011F900F0A9FBFFF7C1FC3220C8
:1011700002F0C0F8FFF7B4FCE4E7032002F004F942
:10118000684602F021FA10F0FF0F13D0012002F0A0
:10119000FBF8642002F0AEF802F07AFB384602F069
:1011A000A9F800F0A4FB2846FFF78CFD0546032DA7
:1011B00013D02BE0022002F0E7F8BDF8000000F0A9
:1011C000C4FDFFF795FC322002F094F8FFF788FC8D
:1011D00002F0B6FB0228FBD1DBE7032002F0D4F8D3
:1011E00002F0E8F810F0FF0F14D0012002F0CCF864
:1011F000642002F07FF802F04BFB384602F07AF8E8
:1012000000F075FB2846FFF75DFD0546022C8CD1EA
:101210000420F8BD022002F0B7F800F0A9FBFFF7A8
:1012200067FC322002F066F8FFF75AFCE0E770B581
:10123000012600F05CFB01200DE002F081FB0400C0
:1012400002D0012C0BD037E00320B6FBF0F100FBFD
:101250001166761C304601F077F80546EDE7012D62
:1012600004D0022D15D0032D18D01FE000F064FC2F
:1012700002F066FB054600F08FFF20B1022804D083
:10128000022DF5D112E000F019FB012002F052F816
:101290000CE000F07DFF00F06BFB07E000F0EEFFDC
:1012A00000F053FD02F04CFB0228FBD100F01FFBC5
:1012B000304601F049F80546022CBED1042070BD2D
:1012C00070B5012500F013FB012002F0C1FD0446BA
:1012D000032602F035FB28B101280AD00228F8D1F4
:1012E000002070BDB5FBF6F006FB10556D1C2846BE
:1012F0000DE0012C05D0022C27D0032CE9D10320CE
:1013000070BD02F0B5FC30B100F0F1FA012002F03E
:101310009FFD0446DDE700F0EAFA1B2203210E20C0
:1013200000F03EFC1C220321202000F039FC0622A4
:101330000321322000F034FC07220321442000F076
:101340002FFC022001F0F6FFCAE7022070BDF0B5C5
:10135000002201274FF0030C0B6807FA02F52B401F
:10136000AB422CD1066853000CFA03F4A643066086
:101370000E79D0F800E09E4046EA0E0606600E792F
:10138000012E01D0022E12D18668A64386604E79C6
:10139000D0F808E09E4046EA0E0686604668AE43F6
:1013A000466045688E799640B6B235434560C5685B
:1013B000A543C560CC799C40C3681C43C460521CE3
:1013C000102AC9D3F0BD4B07DB0E9A40C90810B5EF
:1013D00000EB8100016A0F249C40A1430162016A75
:1013E0001143016210BD0246002012690A4200D07A
:1013F000012070474183704701837047FEE700007A
:101400001CB50121084600F011FE0121102000F05A
:101410000DFE0121880300F021FE01200024009030
:101420008DF804408DF8074069460748FFF78FFFA5
:101430001C2000908DF804408DF807406946034851
:10144000FFF785FF1CBD00000000024000100240B5
:101450002DE9F041ADF5427D0F4680464FF4807690
:1014600014460025314641A8FFF7C8F9314601A8C6
:10147000FFF7C4F9314681A8FFF7C0F93B46424661
:1014800022A101A80094FEF789FF01A922A0FEF77E
:1014900079FF03242003324641A901F03DFE9DF867
:1014A0000401FF282DD0314641A8FFF7A7F9641C9D
:1014B000E4B2222CEED3002D1FD103244FF4805729
:1014C0002503284601F060FE07EB0430324681A96F
:1014D00001F022FE324681A9284601F0F1FD641C8C
:1014E000E4B2212CECD34FF40434204601F04CFE3E
:1014F000324601A9204601F0E3FD0DF5427DBDE82D
:10150000F0812003324601A9F5E7000025733A2552
:10151000733A25730000000025730D0A00000000D7
:101520007CB50546082100240846FFF726FB8021EC
:101530000E20FFF722FB00210D2001F097FE9320E3
:1015400028702020687001A82B46009002221946BE
:101550000C2000F0E8F806000AD10022A85C521C1A
:101560004440D2B2042AF9D3A85CA04200D002269B
:1015700080210E2001F062FA30467CBD30B585B086
:101580008DF804008DF80510002001A9145C0D18D9
:10159000401CC0B2AC700628F8D300200C181A5CAE
:1015A000401CC0B222720428F8D304A800900B4655
:1015B0000C220E2000F0B7F8040004D1082001F03E
:1015C00021F9000700D4022405B0204630BD10B533
:1015D00001F09EF900F050F88D212A2001F046FE1E
:1015E0003E212B2001F042FE32212D2001F03EFE53
:1015F00000212C2001F03AFE4021152001F036FE9A
:101600003D21112001F032FE0021012001F02EFECB
:10161000BDE81040FFF739BA1CB50C4630212170E7
:101620006070A21C02212046FFF76FFA01A8234632
:101630000090042219460C2000F075F818B9BDF886
:101640000410902900D002201CBD7CB50C46054634
:1016500007210D2001F00AFE257001A82346009005
:10166000012219460C2000F05EF818B9BDF80410EC
:10167000102900D002207CBD70B50F4D4FF40064DE
:1016800021462846FFF7B8FE012001F061FE214601
:101690002846FFF7AFFE012001F05AFE21462846FA
:1016A000FFF7AAFE012001F053FEBDE870400F21B4
:1016B000012001F0DBBD00000008024010B586B03B
:1016C00093218DF8041070218DF8051000218DF8FC
:1016D0000A1001AA5418435CA370445C9DF80A30B8
:1016E000491C6340C9B28DF80A300429F2D307219E
:1016F00001A8D21DFFF709FA08210846FFF73DFAB5
:1017000004A801AB0090092219460C2000F00BF848
:1017100018B9BDF81000182802D0002006B010BD7E
:101720009DF80400FAE72DE9FF5F0025DDF838B0E9
:1017300017468A4680464FF002092E460C2805D0EF
:10174000B8F10E0F04D11225102601E077253026BE
:1017500045F08001022001F089FD80210420FFF77F
:101760000CFA80210A2001F069F90021012001F022
:101770007DFD002406E01AF80410092001F076FD32
:10178000641CA4B2BC42F6D34146012001F06EFDB8
:10179000B8F10C0F03D180210D2001F04FF942F276
:1017A0001074042001F02EF8641E24040746240C53
:1017B00003D0F80701D13742F3D080210D20FFF785
:1017C000DCF98CB3062001F01DF810F01B0F01D0DE
:1017D000022028E0B8F10C0F24D10A2001F012F801
:1017E00005460C2001F00EF810F007004FEAC50185
:1017F00004D008390844ABF8000001E0ABF8001051
:1018000025B1122D00D91225002409E00125FBE79E
:10181000092000F0F7FF014603980155641CA4B2AB
:10182000AC42F5D30020814680210C2001F01EFD42
:101830000021012001F01AFD04B04846BDE8F09FE8
:10184000FEE7704730B50F23C27801780125FAB161
:10185000144A126801F1E02102F4E062C2F5E0628C
:10186000C2F30722C2F10404D3404278A240847834
:101870001C401443220181F80024007800F01F016D
:101880008D404009800000F1E020C0F8005130BDDB
:1018900001F01F0085404809800000F1E020C0F8F9
:1018A000805130BD0CED00E0024908430249086058
:1018B000704700000000FA050CED00E010B500F0E4
:1018C00016F802211922084600F06AF91A220221AC
:1018D000142000F065F906220221262000F060F9AC
:1018E00007220221BDE81040382000F059B970B538
:1018F0000025002105F1B00000F048FA002108465B
:1019000000F044FA0021102000F040FA00240121E8
:10191000002000F03BFA641CE4B2802CF7D36D1C6D
:10192000EDB2082DE5D370BD10B5FFF7E0FF022141
:101930002B22084600F034F92C220221142000F05A
:101940002FF925220221262000F02AF92622022141
:10195000382000F025F910230221BDE8104002A232
:101960004A2000F0BEB900006C696E672E2E2E0072
:1019700010B5FFF7BCFF02213322084600F010F932
:101980001E220221142000F00BF90622022126203B
:1019900000F006F907220221BDE81040382000F0CF
:1019A000FFB810B5FFF7A3FF02210422084600F09C
:1019B000F7F805220221142000F0F2F80822022193
:1019C000262000F0EDF809220221BDE81040382061
:1019D00000F0E6B810B5FFF78AFF02210F22084693
:1019E00000F0DEF810220221142000F0D9F81122B4
:1019F0000221262000F0D4F812220221382000F023
:101A0000CFF813220221BDE810404A2000F0C8B8E8
:101A100010B5FFF76CFF02210F22084600F0C0F856
:101A200010220221142000F0BBF8312202212620CE
:101A300000F0B6F832220221382000F0B1F813226B
:101A40000221BDE810404A2000F0AAB810B502F00B
:101A5000ABFA4FF4487001F04DFC0021AE2000F0CD
:101A600095F90021084600F091F90021102000F0BE
:101A70008DF90021402000F089F90021B02000F00C
:101A800085F90021812000F081F90021FF2000F07C
:101A90007DF90021A12000F079F90021A62000F0B5
:101AA00075F90021A82000F071F900213F2000F015
:101AB0006DF90021C82000F069F90021D32000F061
:101AC00065F90021084600F061F90021D52000F0F9
:101AD0005DF90021802000F059F90021D82000F0A4
:101AE00055F90021052000F051F90021D92000F01E
:101AF0004DF90021F12000F049F90021DA2000F031
:101B000045F90021122000F041F90021DB2000F00E
:101B10003DF90021302000F039F900218D2000F03E
:101B200035F90021142000F031F90021BDE8104002
:101B3000AF2000F02BB9000010B5FFF7D8FE02214E
:101B400010230AA2084600F0CCF811220221262018
:101B500000F026F812220221382000F021F813228A
:101B60000221BDE810404A2000F01AB8524649440C
:101B70000000000010B50A460446002102F1B00042
:101B800000F004F9102040EA1410002100F0FEF8E3
:101B900004F00F00BDE81040002100F0F7B800008D
:101BA0002DE9F04115460E460746FFF7E3FF0F48C3
:101BB000002400EB85150121285D00F0E7F8641C86
:101BC000E4B2102CF7D3761CF1B23846FFF7D2FFFF
:101BD00000242819012190F8200000F0D7F8641C97
:101BE000E4B2102CF5D3BDE8F08100002400002001
:101BF0002DE9F041203A00240F468046D5B27F28D7
:101C000003D900208F1C8046FFB2102B394610D01C
:101C1000FFF7B0FF164905EB450001EB4005012138
:101C2000285D00F0B3F8641CE4B2062CF7D3BDE8DD
:101C3000F081FFF79FFF0F4E04EB05100121305C90
:101C400000F0A4F8641CE4B2082CF5D37F1CF9B2B0
:101C50004046FFF78FFF002404EB051030440121BC
:101C6000007A00F093F8641CE4B2082CF4D3DEE7A9
:101C700082440008AA4600082DE9F05F0027DDF83D
:101C800028A01D4691468B4680463C464FEA5A06A0
:101C900023E0281B401EC1B20A2002F06FF9B9FBF5
:101CA000F0F00A21B0FBF1F201FB120027B9691E26
:101CB0008C4201DA38B101273030C2B206FB048011
:101CC000C0B2534604E006FB0480C0B25346202253
:101CD0005946FFF78DFF641CE4B2AC42D9D3BDE88E
:101CE000F09F2DE9F041984617460E460446002520
:101CF0000DE0434631462046FFF77AFF0834E4B250
:101D0000782C02D90024B61CF6B26D1CEDB27A5DB7
:101D1000002AEED1BDE8F08110B5FFF7E8FD022101
:101D200004220846FFF73CFF052202211420FFF79A
:101D300037FF062202212620FFF732FF0722022169
:101D4000BDE810403820FFF72BBF38B50446FFF739
:101D5000CEFD022138220846FFF722FF3922022158
:101D60001420FFF71DFF352202212620FFF718FF60
:101D7000362202213820FFF713FF102102230091A1
:101D8000224619464A20FFF777FF38BDC0B209B195
:101D900001F055BA01F03CBA10B5FFF7A8FD0022DA
:101DA00011461046FFF7FCFE012200211220FFF72A
:101DB000F7FE022200212420FFF7F2FE0322002179
:101DC000BDE810403620FFF7EBBE000070B58AB0CA
:101DD0000121102000F02AF90121084600F03EF907
:101DE0004FF48040059002208DF8180003208DF8F4
:101DF000190000241A4E8DF81A4001258DF81B5049
:101E000005A93046FFF7A3FA01220E213046FFF75D
:101E1000DAFA44F61F600890A720ADF81C00114EB6
:101E2000ADF82440ADF81E4007A9304600F03CFF55
:101E30006020ADF8000040F2DC500290ADF8025096
:101E4000ADF80C406946304600F0FCFE01213046FA
:101E500000F0CFFE0121304600F0D5FE0AB070BD83
:101E60000010024000000140014908627047000074
:101E700000000E422DE9F041ADF5427D4FF4807631
:101E800031466846FEF7BAFC4022634980A8FEF757
:101E900061FC61494022403190A8FEF75BFC5E493D
:101EA00040228031A0A8FEF755FCF82142A8FEF799
:101EB000A5FC594840221438D0E90010CDE9401063
:101EC0005549B0A8C031FEF745FC0C2269460020F8
:101ED00001F022F9504968460C39FEF7B7FC77004B
:101EE0004FF440787501E0B30024200301F04CF971
:101EF000641CE4B2222CF8D3402280A9002001F017
:101F0000DFF8402290A9304601F0DAF84022A0A97B
:101F1000384601F0D5F84022B0A94446404601F0C9
:101F2000CFF8324640A9284601F0CAF80C223B49B6
:101F3000002001F0F1F839490C220C31304601F053
:101F4000EBF8364940221831384601F0E5F83349BC
:101F500040225831204601F0DFF80522304928465A
:101F600000E005E001F0D8F80DF5427DBDE8F08114
:101F700031466846FEF742FC28490C220C313046B7
:101F800001F0CAF8254940221831384601F0C4F85A
:101F9000224940225831404601F0BEF8204E00242C
:101FA00020A0315DFEF7EEF9641CE4B2052CF7D3F6
:101FB0001DA0FEF7E7F94FF480540C226946204635
:101FC00001F0AAF89DF800104FF00C02FF29134908
:101FD00001D0204600E0002001F09EF80024A04639
:101FE00005EB0420CDF8008307460522C0A9CDF8F3
:101FF000048301F091F89DF80003FF2806D004EB5C
:10200000840081193846052201F086F8641CE4B288
:10201000032CE5D3A8E70000E04C0008BC1000202A
:102020004C10002025642D000D0A0000044A0029F0
:10203000116801D0014300E0814311607047000046
:1020400030380240044A0029116801D0014300E001
:10205000814311607047000040380240044A002963
:10206000116801D0014300E0814311607047000016
:102070004438024070B5204B1968204C11F00C0117
:1020800004D06610042903D0082903D004601BE0A3
:10209000066019E0184A121F1168C1F380551168D3
:1020A00001F03F0115B1B6FBF1F101E0B4FBF1F134
:1020B00014681268C4F388146143C2F30142521CCD
:1020C0005200B1FBF2F1016019680F2202EA11110E
:1020D0000B4A545C0168E14041601C68072505EA31
:1020E0009424145D21FA04F484601B6805EA5333D8
:1020F000D25CD140C16070BD083802400024F400B9
:102100000000002002460020510901290BD00229BD
:102110000CD00849096802F01F02012393400B42CA
:1021200000D00120704703497439F3E70149091FC2
:10213000F0E7000074380240054900220A700A7076
:10214000012802D0042801D1052008707047000042
:102150007038024001490860704700003C0E474259
:10216000C0F30121032907D1074B1968074A21F45D
:10217000F81102400A431A60034968310A68C0F343
:102180000B0002430A60704708380240FFFCFF0F53
:102190004FF4005000F0F8BF2DE9FF4131495220C3
:1021A000FFF753FA18B1012004B0BDE8F0812D48C3
:1021B000801CFFF7B5F92B48801CFFF77FFA294BED
:1021C00004219B1C5A1D6020FFF7D8F926490420E2
:1021D000FFF722FA23484278017824A0FEF7D2F8CC
:1021E000002426464FF40055009605EB04200522F6
:1021F0006946019600F090FF9DF80000FF2805D089
:10220000641CE4B2032CEFD30220CDE7154905EBA3
:1022100004200522891C00F053FF13480F210F38BA
:10222000FEF7CAFADFF840800024A8F10F0805EB9A
:10223000042002960746052202A9039600F06CFFCF
:102240009DF80800FF2806D004EB8401414438467D
:10225000052200F061FF641CE4B2032CE7D30020E8
:10226000A2E70000A40E00205B100020BFA8C0E081
:10227000D0CD3A2564202025640D0A002DE9FC41CB
:102280000026344635464FF40057009507EB0420EE
:1022900005226946019500F03FFF9DF80000FF28E8
:1022A00001D0761CF6B2641CE4B2032CEDD33046A8
:1022B000BDE8FC812DE9F0411D495220FFF7C5F929
:1022C00080BB1B48801CFFF72BF91948801CFFF7C7
:1022D000F5F9174B04219B1C5A1D6020FFF74EF99E
:1022E00014490420FFF798F911484278017812A0A8
:1022F000FEF748F80E4B00240E4D9B1C21460F3D67
:1023000001EB810200202A441F5C165CBE4204D10E
:10231000401CC0B20528F7D33CB1491C0024C9B207
:102320000329EDD30120BDE8F0810020FBE7000088
:10233000A40E00205B100020BFA8C0E0D0CD3A253D
:1023400064202025640D0A0010B50446102341A224
:1023500000211220FFF7C5FC192200213620FFF7CB
:102360001FFC1A2200214820FFF71AFC102339A273
:1023700002211220FFF7B5FC1D2202213620FFF7B3
:102380000FFC1E2202214820FFF70AFC102331A275
:1023900004211220FFF7A5FC2B2204213620FFF791
:1023A000FFFB2C2204214820FFF7FAFB012C1DD053
:1023B000022C35D0032C18D10021102327A2084667
:1023C000FFF78FFC102325A202210020FFF789FCD4
:1023D000102323A204210020FFF783FC10231FA257
:1023E00006210020FFF77DFC032010BD00211023F3
:1023F0001BA20846FFF775FC102318A2022100203B
:10240000FFF76FFC102315A204210020FFF769FCE1
:10241000102312A206210020FFF763FC012010BD4B
:10242000002110230DA20846FFF75BFC10230CA22D
:1024300002210020FFF755FC102308A204210020F0
:10244000FFF74FFC102305A206210020FFF749FCEF
:10245000022010BD52464944000000002020000028
:102460002D3E0000010901EB810100F00F0000EB9F
:102470004100C0B27047002103E0491C0A38C9B2CC
:10248000C0B20A28F9D2090740EA1160704700007B
:102490003EB5002000F0DEF87F283CD0012108077F
:1024A000FFF7D0FD0120FFF7DFFC0120FFF744FE1E
:1024B0004120FFF727FE0128FAD10002FFF750FE66
:1024C0000120FFF747FE00F06DF9FF2002907F200A
:1024D0000024CDE90040684600F094F80E48112130
:1024E000C47001703421417084700146002000F0F6
:1024F00007F909481821001DC170102141701221EF
:102500008170062101700146002000F0ADF87F21A6
:10251000002000F06DF93EBDFC0E002008B50D490D
:10252000002000900868400612D44FF0FF30086089
:102530008B130868009A00F04000521C00929A42E7
:1025400001D00028F5D00868400601D4002008BD5D
:10255000012008BD0C2800400248016821F08001DC
:10256000016070470C280040020010B50F480C466F
:1025700001680F4801EA00014FEA1140E070C1F321
:102580000423637001F03F03A370C1F34231217053
:102590000AD1FFF767FFE0706078FFF763FF6070B4
:1025A000A078FFF75FFFA07010BD00000428004076
:1025B0003FFFFF00020010B510480C4601681048AC
:1025C00001EA0001C1F305402070C1F306236370E6
:1025D00001F07F03A3704FF0400303EA1141E17063
:1025E0000AD1FFF73FFF20706078FFF73BFF607074
:1025F000A078FFF737FFA07010BD00000028004052
:102600007F7F7F0070B5124D04460026CA202860E7
:1026100053202860FFF782FFA8B10D481C380168DD
:1026200021F04001016001682268114301600848FF
:10263000A168143801600168A28841EA0241016082
:10264000FFF78AFF0126FF202860304670BD00009A
:102650002428004008B5034901EB80000090006881
:1026600008BD00005028004070B50C46002601004F
:1026700060780FD0FFF7F6FEA078FFF7F3FEA078A2
:10268000E17840EA014560782178000240EA413073
:10269000054315E0C10603D520F010000A30607034
:1026A000E078FFF7E8FE05046078FFF7E4FE45EA0E
:1026B0000025A078FFF7DFFE0543207845EA403586
:1026C0000D4CCA20206053202060FFF727FF78B10F
:1026D0000A480540084820380560FFF73DFF0648D6
:1026E0001C380068800602D400F05CF800B10126B6
:1026F000FF202060304670BD242800403FFFFF00CF
:102700002DE9F0410C460026234F0100207839685E
:1027100032464FEA416104D0002930DAFFF7A2FEC9
:102720002EE0002900DBE270FFF7A5FE05046078CB
:10273000FFF7A1FE45EA0025A078FFF79CFE0543C0
:10274000E07845EA0045144CCA201C342060532030
:102750002060FFF7E3FE68B1104805400E480838D6
:102760000560FFF7F9FE3868800602D400F01AF819
:1027700000B10126FF2020603046BDE8F081E27004
:10278000A078217840EA01456078E178000240EACB
:1027900001400543D7E70000082800407F7F7F0005
:1027A0007047000018B50020104B0090CA20186038
:1027B000532018600D491839086820F0A0000860FF
:1027C0004FF400340868009A00F02000521C009278
:1027D000A24201D00028F5D00868800601D501206A
:1027E00000E00020FF21196018BD000024280040EF
:1027F00008B5034A02EB80000090016008BD0000AC
:102800005028004070B50B4D044640212846FEF785
:10281000F1FD7E2000EA440040F0800000F048F81E
:1028200000F00AF8044640212846FEF7E5FD204660
:1028300070BD0000000C02402DE9F0470026DFF8D3
:1028400068901A4FFF2534464FF4807A4FF0010804
:1028500028064FF04001484602D5FEF7CDFD01E0C5
:10286000FEF7C8FD6806050E80213846FEF7C4FD58
:10287000022000F06DFD51464846FEF7B4FD28B138
:10288000C4F1070108FA01F03043C6B2802138468E
:10289000FEF7B0FD022000F05BFD641C082CD7DBC6
:1028A0003046BDE8F087000000080240000C0240FE
:1028B0002DE9F041144F154E054600244FF4807861
:1028C00028064FF04001384602D5FEF795FD01E09D
:1028D000FEF790FD6806050E80213046FEF78CFD60
:1028E000022000F035FD41463846FEF77CFD802190
:1028F0003046FEF77FFD022000F02AFD641C082C04
:10290000DEDBBDE8F081000000080240000C024060
:102910002DE9FC4101210C20FFF788FB00258DF8F3
:1029200006508DF8075003208DF805008020194EC1
:10293000012400908DF8044069463046FEF707FDFB
:102940002002154F00908DF8045069463846FEF776
:10295000FEFC402500958DF8044069463846FEF798
:10296000F6FCE00200908DF8044069463846FEF718
:10297000EEFC00958DF8044069463046FEF7E7FC12
:1029800040213046FEF738FD80213046FEF732FD0B
:10299000BDE8FC81000C02400008024010B58A0727
:1029A00021F003040849120F21440F23D1F80848ED
:1029B00093409C43C1F80848D1F80838904003433D
:1029C000C1F8083810BD0000003001409FED010A39
:1029D00000F008B8000000009FED010A00F002B806
:1029E00000003443B5EEC00AF1EE10FA01D29FEDBB
:1029F0000D0A0D4910EE100ADFED0C0A884201DDC8
:102A0000B0EE600A80EE201ADFED090A9FED090A98
:102A100001EE200ABCEEC00A10EE100A81B2064890
:102A200000F040B9000000000000344300003443CF
:102A30000000FA440000FA430000014070B50C4663
:102A40000546FFF7DFFE40EA04012846BDE8704076
:102A500000F00CBC0CB500222749009201920868D6
:102A600040F4803008604FF4A043086800F4003060
:102A700001900098401C0090019810B9009898426D
:102A8000F3D10868800334D5012001901A48403002
:102A9000026842F0805202601848026842F44042E4
:102AA00002601548083002680260026842F4004281
:102AB0000260026842F4A0520260031F104A1A60CA
:102AC0000A6842F080720A600A689201FCD50D49DA
:102AD00040F205720A60016821F00301016001689B
:102AE00041F0020101600168C1F381010229FAD1BC
:102AF0000CBD01920CBD0000003802400070004087
:102B000008544007003C02404FF0E02104280869C7
:102B100003D020F004000861704740F00400FAE799
:102B200010B5502080F31188BFF34F8FBFF36F8F24
:102B300001F004FC18B104494FF0805008600020F7
:102B400080F3118810BD000004ED00E0124810B5BC
:102B5000016841F4700101601048016841F0010111
:102B600001600E4A00210832116002680C4B1A40C5
:102B70000260031D0B4A1A60026822F48022026080
:102B800006480C300160FFF765FF03494FF0006015
:102B90008039086010BD000088ED00E00038024078
:102BA000FFFFF6FE1030002410B50E4C0121204628
:102BB00000F034F8012814D10B4A11699068814261
:102BC00001D0906806E031B19068814203D10120C4
:102BD000D060002010612046BDE81040012100F0C7
:102BE00005B810BD00040040C40E0020C943018296
:102BF00070470029018802D041F0010101E021F075
:102C0000010101807047002930F8441F02D041F4CF
:102C1000004101E0C1F30E0101807047024600202F
:102C2000138A92890B4202EA010202D0002A00D0E4
:102C300001207047002A828901D00A4300E08A43BC
:102C40008281704770B5028C22F480520284058C18
:102C50008288838B0C8823F4E6464FF6FF7303EAE1
:102C60000424344325F400568D8903EA05353543A1
:102C70004E8803EA06362E43084DA84202D0084D7E
:102C8000A84205D122F480450A8A03EA82122A4327
:102C90008280848389680164068470BD00000140DD
:102CA000000401400164704730B50288164C174D8E
:102CB000A0420DD0A8420BD0B0F1804F08D0144BE9
:102CC000984205D0134B984202D0134B984203D13F
:102CD00022F070034A881A43104B984206D0104BDA
:102CE000984203D022F440730A891A4302804A684A
:102CF000C2620A880285A04201D0A84201D1897A25
:102D000001860121818230BD0000014000040140A4
:102D10000004004000080040000C0040001000408B
:102D20000014004070B5124C40F22555294620464B
:102D300000F00EF901281AD1204600F097F90D4B4A
:102D40005A680D498E18521C5A60307058680844F1
:102D500010F8010C232802D05868402801D3002025
:102D6000586029462046BDE8704000F0DAB870BDD2
:102D70000010014010000020440F002070B50646EE
:102D800088B001211020FFF769F901210846FFF7FB
:102D90004DF9234D072209212846FEF714FB07228F
:102DA0000A212846FEF70FFB02208DF814000024AC
:102DB0008DF816404FF4C06004908DF817408DF8E0
:102DC000154004A92846FEF7C2FA0C20ADF80A0007
:102DD000144DADF806400096ADF80C40ADF8084033
:102DE000ADF804406946284600F0EAF8012240F2B6
:102DF0002551284600F0CBF825208DF81800012039
:102E00008DF81B008DF819408DF81A4006A8FEF7C2
:102E100019FD0121284600F08AF808B070BD0000B5
:102E2000000002400010014070B50F4C40F22555E3
:102E30002946204600F08CF8012814D1204600F0E5
:102E400015F9C3B2094843708168402905D28268E8
:102E500007491144521C82600B7029462046BDE888
:102E6000704000F05EB870BD00440040C40E002009
:102E700070100020F0B50746012187B04804FFF725
:102E8000E1F801210846FFF7D1F8224E072202217E
:102E90003046FEF798FA072203213046FEF793FAF0
:102EA00002208DF8140000248DF816400C258DF8B2
:102EB000174004958DF8154004A93046FEF747FAEF
:102EC000ADF80A50144DADF806400097ADF80C402F
:102ED000ADF80840ADF804406946284600F070F8A7
:102EE000012240F22551284600F051F826208DF8A5
:102EF000180001208DF81B008DF819408DF81A403C
:102F000006A8FEF79FFC0121284600F010F807B044
:102F1000F0BD00000000024000440040C9430180B1
:102F200070470A0A01219140C94301807047002976
:102F3000818902D041F4005101E021F400518181E6
:102F400070470246002012880A4200D001207047D4
:102F500070B501F01F0501260024C1F3421306FAE3
:102F600005F2012B0FD0022B0FD0838A4FEA1121DB
:102F70000088134206FA01F600EA060001D000B10B
:102F80000124204670BD8389F0E7038AEEE710B57F
:102F9000C1F3421301F01F040121A140012B07D00E
:102FA000022B07D01430002A026805D00A4304E03F
:102FB0000C30F8E71030F6E78A43026010BD0000DD
:102FC0007FB50446008A0D46C98820F4405001436D
:102FD0002182A08941F20C618843A9882A89114382
:102FE0006A8902431143A181A08A20F44071A88913
:102FF0000843A0826846FFF73DF81A48844202D091
:103000001948844201D1039800E00298A18909047B
:1030100000EBC00101EB0010296801D5490000E078
:103020008900B0FBF1F06422B0FBF2F109010B0959
:103030006FF018056B4300EB8300A3891D044FF06C
:10304000320306D503EBC000B0FBF2F000F007003E
:1030500005E003EB0010B0FBF2F000F00F000843B6
:1030600020817FBD00100140001401408088C0F322
:1030700008007047C1F3080181807047FEE7000037
:1030800010B501210220FEF7D1FF0A4800210124DA
:103090008171C171032141710471A1030160014675
:1030A0000548FEF754F90548C0F8B842BDE810409D
:1030B00001F026B8F40E00200004024000804042D7
:1030C0002DE9F04115460C46074600F091F8114EE7
:1030D0000020C6F8B802022001F042F8C7F307400A
:1030E00001F03EF8C7F3072001F03AF8F8B201E02A
:1030F00014F8010B01F034F86D1EF9D20120C6F866
:10310000B80200F02FF8C007FBD1BDE8F04100F095
:103110005FB80000008040422DE9F041104E0746A4
:10312000002015460C46C6F8B802032001F018F836
:10313000C7F3074001F014F8C7F3072001F010F8B7
:10314000F8B201F00DF804E0FF2001F009F804F8EE
:10315000010B6D1EF8D20120C6F8B802BDE8F0815F
:103160000080404210B5074C0020C4F8B80205208A
:1031700004F52E7400F0F4FF002000F0F1FF0121AF
:10318000216010BD0080404270B5044600F030F868
:103190000E4D0020C5F8B802202005F52E7500F070
:1031A000DFFFC4F3074000F0DBFFC4F3072000F0AB
:1031B000D7FFE0B200F0D4FF01202860FFF7D2FF74
:1031C000C007FBD1BDE8704000F002B8008040426B
:1031D00010B5064C0020C4F8B802042004F52E7483
:1031E00000F0BEFF0120206010BD000000804042C2
:1031F00010B5064C0020C4F8B802062004F52E7461
:1032000000F0AEFF0120206010BD000000804042B1
:1032100010B5044600F044FF782000F01BFF00F0DA
:10322000E5FE002000F016FF00F0E0FE204600F072
:1032300011FF00F0DBFEBDE8104000F049BF10B503
:10324000044600F02DFF782000F004FF00F0CEFED1
:10325000402000F0FFFE00F0C9FE204600F0FAFE1C
:1032600000F0C4FEBDE8104000F032BF70B50A4D5A
:103270000E46044640212846FEF7BCF87E2000EAB0
:103280004400FFF715FB3046FFF712FB2846BDE868
:1032900070404021FEF7B0B8000C024030380A28D8
:1032A00001D20120704700207047002203E010F88F
:1032B000013B1A4492B2491EF9D2104670470000F1
:1032C00010B504466FF00400FFF71EFCE01704EB96
:1032D00050700749C0F3C70000EB40020870C2EB12
:1032E000C0104FF6FF7202EAC000488010BD000017
:1032F0001800002010B54FF0E0210A6922F0010209
:103300000A6100230A4C0EE06288521E4A618B61FA
:103310000A6942F001020A610A69D203FCD50A690E
:1033200022F001020A61401EEED2002010BD000012
:103330001800002070B5054600244FF47A7603E0AB
:103340003046FFF7D7FF641CAC42F9DB002070BDAC
:103350004FF0E0210A6922F001020A61094A12785D
:103360004243521E4A6100208861086940F0010012
:1033700008610869C003FCD5086920F001000861F4
:10338000002070471800002010B5012804D0022842
:1033900004D0032809D006E0054901E004491031B2
:1033A000102000F057FA002010BD01491039F7E74E
:1033B000AA4C00083EB517A04FF47A6407C88DE800
:1033C000070069460C2000F045FA154D02E0012087
:1033D000FFF790FFE86808B9641EF8D100F01CFF01
:1033E000104908784FF0FF35EF2804D048780128BD
:1033F00001D00DA008E05CB1487A002807D0497AD6
:103400000EA0FCF7BFFF13A0FCF7BCFF28463EBD93
:1034100016A0F9E7EF01FFFFFFFF0100030D001108
:10342000C40E002070100020C7EBBCECB2E9D3B290
:10343000BCFEC1ACBDD30D0A00000000C7E5BFD57E
:10344000D6B8CEC6A3BACAA7B0DC20253032580DF4
:103450000A000000C7EBB2BBD2AAB0B4D1B9D6B84B
:10346000CEC6C4A3BFE90D0A00000000C7E5BFD562
:10347000D6B8CEC63AB3ACCAB10D0A0030B585B0E5
:10348000EF218DF800100122FF2108238DF8012083
:103490008DF804108DF808308DF802108DF80510A5
:1034A00031238DF803108DF809300021030A8DF8BF
:1034B0000A308DF80C208DF80B008DF80D108DF86A
:1034C00006203F208DF807108DF80E004FF47A6427
:1034D00009210DF10600FFF7E8FE010A8DF80F1033
:1034E0008DF810006946112000F0B4F9154D02E086
:1034F0000120FFF7FFFEE86808B9641EF8D100F06C
:103500008BFE114908784FF0FF35EF280AD0487834
:10351000012807D00DA0FCF735FF13A0FCF732FF00
:1035200016A00BE04CB1487A002804D0497A1AA0C2
:10353000FCF728FF284605B030BD1EA0FCF722FF8F
:10354000F8E70000C40E002070100020D7D4B6AFFA
:10355000D7A2B2E1D6B8CEC63ACAFDBEDDB0FCD223
:10356000ECB3A3A3A10D0A00312EBCECB2E9D3B297
:10357000BCFEC1ACBDD30D0A00000000322EBCEC75
:10358000B2E9CAC7B7F1D3D0B0B4D1B9D6B8CEC6B4
:10359000C4A3BFE90D0A0000D7D4B6AFD7A2B2E1E9
:1035A000D6B8CEC6A3BACAA7B0DC20253032580D93
:1035B0000A000000D7D4B6AFD7A2B2E1D6B8CEC6C3
:1035C0003AB3ACCAB10D0A00FEB506461AA04FF4D4
:1035D0007A6407C88DE8070069460C2000F03AF9C4
:1035E000184D02E00120FFF785FEE86808B9641E67
:1035F000F8D100F011FE144801784FF0FF35EF29A3
:1036000004D04178012901D010A007E054B1417ADB
:1036100051B1417A12A0FCF7B5FE19A0FCF7B2FE39
:103620002846FEBD1CA0F9E7C17A807A41EA002055
:1036300030800020FEBD0000EF01FFFFFFFF010012
:10364000031D0021C40E002070100020C7EBBCEC4D
:10365000B2E9D3B2BCFEC1ACBDD30D0A000000007C
:10366000BBF1C8A1D3D0D0A7D6B8CEC6D7DCCAFD8F
:10367000A3BACAA7B0DC20253032580D0A000000DA
:10368000C7EBB2BBD2AAB0B4D1B9D6B8CEC6C4A328
:10369000BFE90D0A00000000BBF1C8A1D3D0D0A73C
:1036A000D6B8CEC6D7DCCAFD3AB3ACCAB10D0A0053
:1036B00070B586B00546EF208DF80000FF2001218F
:1036C0008DF801108DF804008DF805008DF80610B6
:1036D00008218DF808108DF8020032218DF80300C2
:1036E0008DF80910002050218DF807008DF80A1080
:1036F00029884FF47A64090A8DF80B1029788DF81F
:103700000C108DF80D0007208DF80E0009210DF129
:103710000600FFF7CAFD010A8DF80F108DF81000A2
:103720006946112000F096F81D4E02E00120FFF7D7
:10373000E1FDF06808B9641EF8D100F06DFD19488C
:1037400001784FF0FF36EF290AD04178012907D0E0
:1037500015A0FCF717FE1BA0FCF714FE1EA008E046
:1037600034B1417A51B1417A22A0FCF70BFE02E05C
:1037700027A0FCF707FE304606B070BD817B427B78
:1037800041EA0221A1F57F42FF3A06D0017BC07ACF
:1037900041EA002028800020EEE722A0E9E70000AF
:1037A000C40E002070100020D7D4B6AFD1E9D6A443
:1037B000D6B8CEC63ACAFDBEDDB0FCD2ECB3A3A3E8
:1037C000A10D0A00312EBCECB2E9D3B2BCFEC1ACF3
:1037D000BDD30D0A00000000322EBCECB2E9CAC70E
:1037E000B7F1D3D0B0B4D1B9D6B8CEC6C4A3BFE96F
:1037F0000D0A0000D7D4B6AFD1E9D6A4D6B8CEC64C
:10380000A3BACAA7B0DC20253032580D0A00000048
:10381000D7D4B6AFD1E9D6A4D6B8CEC63AB3ACCADF
:10382000B10D0A00D7D4B6AFD1E9D6A4D6B8CEC66A
:10383000A3BAB7D6CAFDD6B5D2ECB3A3A3ACBFC961
:10384000C4DCC3BBD3D0B4E6D4DAB8C3D6B8CEC6D2
:103850000D0A00002DE9F0410D46064600240A4FEE
:103860000AE0295D3846FFF705FC80213846FFF75E
:1038700068FB0028F9D0641CB442F2DB0349002045
:10388000C8608860BDE8F08100440040C40E00209C
:103890000EB504A007C88DE8070069460C20FFF7A5
:1038A000D9FF0EBDEF01FFFFFFFF0100033300371B
:1038B00070B501211020FEF7B9FB01218803FEF746
:1038C000CDFB134840250026056006710324447192
:1038D0000221C17101460F48FDF739FD0621042080
:1038E000FFF75CF80A48082108300560067141714D
:1038F00001258571FDF770F905481721001F01703A
:1039000044708470C570BDE87040FDF79BBF000037
:10391000DC0E00200010024070B50C46054681B256
:103920006068FFF7A7FB80216068FFF70AFB0128AA
:10393000F9D180216068FFF7F1FA284670BD0000D8
:1039400070B51A4DD5F8000258B1194CD4F80802D8
:1039500080B1D4F80C02B0B1D4F81002E0B1092063
:1039600070BD0F20FFF7C6FCD5F800020028FBD081
:10397000002070BD0F20FFF7BDFCD4F8080200281E
:10398000FBD0012070BD0F20FFF7B4FCD4F80C026F
:103990000028FBD0022070BD0F20FFF7ABFCD5F84C
:1039A00000020028FBD0032070BD00000000404250
:1039B000000042422DE9F041874D0027C5F8B8725A
:1039C0000126C5F88062854CC4F89C62C4F8A462E4
:1039D000022005F50F75FFF78DFC2868A5F50F751A
:1039E000E8B3D5F80402D8B3D4F82002C8B3D4F8A9
:1039F0002802B8B3C5F8B862C5F88072C4F89C62F2
:103A0000C4F8A4620220FFF775FCD5F83C0250B35D
:103A1000D5F8040240B3D4F8200230B3D4F8280219
:103A2000002876D0C5F8B862C5F88062C4F89C72E8
:103A3000C4F8A4620220FFF75DFCD5F83C0288B30D
:103A4000D5F8040200286ED0D4F8200200286BD0EC
:103A5000D4F82802002868D0C5F8B86206E022E051
:103A60002AE032E03AE042E04AE053E0C5F8806202
:103A7000C4F89C62C4F8A4720220FFF73BFCD5F89E
:103A80003C02002876D0D5F80402002873D0D4F880
:103A90002002002870D0D4F8280200286DD04E20D3
:103AA000BDE8F0814BE01420FFF724FCD5F83C0280
:103AB0000028FBD03120F3E71420FFF71BFCD5F8DA
:103AC00004020028FBD03220EAE71420FFF712FCA2
:103AD000D4F820020028FBD03320E1E71420FFF7C0
:103AE00009FCD4F828020028FBD04120D8E7142094
:103AF000FFF700FCD5F83C020028FBD03420CFE7CC
:103B00001420FFF7F7FBD5F804020028FBD035207E
:103B1000C6E70BE01420FFF7EDFBD4F820020028E5
:103B2000FBD03620BCE713E01BE027E01420FFF7B2
:103B3000E1FBD4F828020028FBD04220B0E7142093
:103B4000FFF7D8FBD5F83C020028FBD03720A7E7C9
:103B50001420FFF7CFFBD5F804020028FBD0382053
:103B60009EE71420FFF7C6FBD4F820020028FBD004
:103B7000392095E70BE013E01BE023E01420FFF76A
:103B8000B9FBD4F828020028FBD0432088E7142092
:103B9000FFF7B0FBD5F83C020028FBD02A207FE7D6
:103BA0001420FFF7A7FBD5F804020028FBD0302033
:103BB00076E71420FFF79EFBD4F820020028FBD004
:103BC00023206DE71420FFF795FBD4F82802002886
:103BD000FBD0442064E700000080414200004242E4
:103BE0002DE9FC4101210820FEF720FA01211020D7
:103BF000FEF71CFA012544F201008DF80450002460
:103C000000908DF8064003208DF80500114E8DF8C8
:103C1000074069463046FDF79AFB4FF420700E4F7F
:103C2000009069463846FDF792FB48F202008DF895
:103C3000075000908DF8044069463046FDF787FB39
:103C40004FF4A060009069463846FDF780FBBDE860
:103C5000FC810000000C02400010024010B501463B
:103C60000C220248FCF74AFDC0B210BDC81000206B
:103C700070B586B0002500952C46019502950395F8
:103C800004950595FDF733FE00210A220846FDF74D
:103C900087FF0B2200211220FDF782FF0C2200215A
:103CA0002420FDF77DFF1F2200213620FDF778FF3D
:103CB0000D2200214820FDF773FF0E2200215A201B
:103CC000FDF76EFF03AEFFF775FE4E28FBD02328ED
:103CD0000BD00C2D02D270556D1CEDB2102303AA2F
:103CE00004210020FDF7FDFFEDE703A800F062F8D6
:103CF000D8B1FDF7FCFD0D2203210E20FDF750FF8A
:103D00000E2203212020FDF74BFF14220321322035
:103D1000FDF746FF152203214420FDF741FF012056
:103D2000FFF708FB012006B070BDFDF7E0FD0D2296
:103D300003210E20FDF734FF0E2203212020FDF782
:103D40002FFF2F2203213220FDF72AFF30220321EB
:103D50004420FDF725FF0120FFF7ECFAFDF7C7FD32
:103D600000210A220846FDF71BFF0B22002112202A
:103D7000FDF716FF0C2200212420FDF711FF6D46F0
:103D8000FFF718FE4E28FBD023280BD00C2C02D2B4
:103D90002855641CE4B210236A4604210020FDF774
:103DA000A0FFEDE7052CEBD3684600F05FFA00209A
:103DB000B9E7000010B501460C220248FCF79EFC52
:103DC000C0B210BDBC10002000244FF44070FDF7BD
:103DD0006BFDA820FFF774FAFCF792FE1B491A4806
:103DE0004860FDF733FEFDF7D7FFFEF751FBFCF708
:103DF00059FEFDF7EBFFFEF7E9FDFDF701FBFFF7CD
:103E0000EFFEFCF721FFFDF7E2FBFFF739F9FEF7C4
:103E100031F80220FFF78EFA052CFDD2DFE804F01E
:103E20000306090C0F00FCF7E3FF0AE0FDF7DCF8DE
:103E300007E0FDF752F904E0FDF7F9F901E0FDF7BD
:103E40003FFA0446E8E70000001001401C00002093
:103E500010B50446272200211220FDF7A1FE2822DA
:103E600000212420FDF79CFE0D2200213620FDF7C5
:103E700097FE0E2200214820FDF792FE0F2202211C
:103E80001220FDF78DFE102202212420FDF788FE6E
:103E9000292202213620FDF783FE2A220221482012
:103EA000FDF77EFE102331A204211220FDF719FF39
:103EB000292204213620FDF773FE2A2204214820FE
:103EC000FDF76EFE012C1DD0022C35D0032C18D12D
:103ED0000021102327A20846FDF703FF102325A287
:103EE00002210020FDF7FDFE102323A20421002063
:103EF000FDF7F7FE10231FA206210020FDF7F1FEBB
:103F0000032010BD002110231BA20846FDF7E9FE87
:103F1000102318A202210020FDF7E3FE102315A2B2
:103F200004210020FDF7DDFE102312A2062100204F
:103F3000FDF7D7FE012010BD002110230DA2084679
:103F4000FDF7CFFE10230CA202210020FDF7C9FED1
:103F5000102308A204210020FDF7C3FE102305A2B0
:103F600006210020FDF7BDFE022010BD5246494447
:103F700000000000202000002D3E0000034601202C
:103F800000E05843491EC9B2FBD270470548816B17
:103F9000096821B1816BC9680968816270474FF077
:103FA000FF31FAE7040F00201CB501210220FEF7C3
:103FB0003DF801248DF8044000208DF806008DF8AE
:103FC00007004FF44071032000918DF80500694609
:103FD0000448FDF7BCF90448C0F8A442C0F8A04268
:103FE0001CBD0000000402400080404270B500206B
:103FF00000F016F8094D00240120C5F8A0020520A4
:10400000FFF7A6F9D5F8240200B901240020C5F86D
:10401000A0020520FFF79CF9204670BD00804042B9
:104020001CB5044601210220FEF700F88DF804407B
:1040300000208DF806008DF807004FF40071032072
:1040400000918DF8050069460148FDF780F91CBD17
:10405000000402402DE9F04105460120FFF7E0FF92
:1040600000240E4E27464FF00108280602D5C6F858
:10407000A48201E0C6F8A4726806050E0520FFF7C9
:1040800067F9C6F8A0820520FFF762F9C6F8A072AA
:10409000641C082CE9DBBDE8F08100000080404290
:1040A00070B50120FFF7BCFF084C0120C4F8A40242
:1040B000C4F8A002052004F52874FFF749F900258B
:1040C00065600520FFF744F9256070BD008040421F
:1040D00070B50120FFF7A4FF084C0020C4F8A4022B
:1040E0000125C4F8A052052004F52874FFF730F923
:1040F0006560BDE870400520FFF72AB900804042A6
:104100002DE9F04101210220FDF790FF114C00251F
:104110000320A571E57160710126267108200E4FFC
:10412000206021463846FDF712F9257110202060E5
:1041300021463846FDF70BF92671202020602146E4
:104140003846FDF704F90548C0F88C52C0F894527F
:10415000BDE8F081EC0E00200004024000804042E7
:104160002DE9F0470026DFF8508005463446012748
:10417000B146280602D5C8F8947201E0C8F89492B6
:104180006806050EC8F88C720220FFF7E1F8D8F82F
:10419000100228B1C4F1070007FA00F03043C6B29C
:1041A000C8F88C920220FFF7D3F8641C082CE0DBDF
:1041B0003046BDE8F08700000080404270B5012124
:1041C0000220FDF73FFF114809210024416042F21F
:1041D000CF01018004810E4D448001462846FEF740
:1041E00063FD012211462846FEF724FD09491D20E2
:1041F000012208704C708A70CA700846FDF722FBD5
:104200002846BDE870400121FEF7F3BCB010002045
:1042100000040040D80E002070B50AA0FCF7B2F8E8
:1042200000240D4D0D4E04E0295D0DA0FCF7AAF809
:10423000641C30788442F7D3BDE870400AA0FCF7D4
:10424000A1B80000757361727432207265637620C4
:104250006275663A0000000070100020C40E002055
:1042600025303258200000000D0A000070B50546C8
:104270000A4800224FF48054026042608260204667
:10428000FEF782FF0C2229462046FEF719FF204642
:10429000BDE870400C220149FEF73EBFBC10002073
:1042A000502080F31188BFF34F8FBFF36F8FFEE76D
:1042B0007047000010B51F4C606B10B10120E06129
:1042C00010BD0020E06120684FF0A532006B01684E
:1042D000914208D14168914205D18168914202D151
:1042E000C068904204D0216820683431FFF7D8FFBD
:1042F00020691149B0FA80F0C0F11F0000EB800086
:1043000051F820206AB101EB800000F108024168F9
:1043100049684160914201D149684160C8682060A4
:1043200010BD502080F31188BFF34F8FBFF36F8F04
:10433000FEE70000040F0020741100202DE9F04179
:104340004B4E0025706B38B1B069401CB061FFF76F
:10435000AFFF2846BDE8F081F468641CF46013D117
:10436000B06B006838B1502080F31188BFF34F8FD5
:10437000BFF36F8FFEE7B06BF16BB163F063306A30
:10438000401C3062FFF702FEB06ADFF8E8E08442CA
:104390000BD34FF0000CB06B006890B1B06BC068ED
:1043A000C168486884420FD2B0623068C06A00EBCE
:1043B00080005EF82000012800D90125B069E0B333
:1043C0004FE04FF0FF30EFE7D1E9023248699A60E1
:1043D000D1E902235A6043680A1D934201D1CB6898
:1043E0004360C1F814C003685B1E0360886A88B12B
:1043F000D1E907379F60D1E907377B60476801F152
:1044000018039F4201D10B6A4360C1F828C00368BA
:104410005B1E0360C86A0123376983403B433361F5
:1044200000EB80000EEB8000406888608368CB6002
:1044300083685A608260C86A00E010E000EB800088
:104440000EEB80024A615EF82020521C4EF82020BC
:10445000C86A3168C96A88429DD301259BE7FFF786
:1044600027FFF06900283FF474AF012571E70000D1
:10447000040F0020741100204FF04070E1EE100A8C
:1044800070470000000000000000002F0000000046
:104490000700070000147F147F1400242A7F2A12CB
:1044A00000626408132300364955225000000503BA
:1044B000000000001C224100000041221C000014EA
:1044C000083E08140008083E0808000000A060002C
:1044D00000080808080800006060000000201008BC
:1044E0000402003E5149453E0000427F4000004228
:1044F00061514946002141454B31001814127F108B
:10450000002745454539003C4A49493000017109B9
:10451000050300364949493600064949291E00006D
:104520003636000000005636000000081422410014
:104530000014141414140000412214080002015144
:10454000090600324959513E007C1211127C007F4D
:1045500049494936003E41414122007F4141221CE8
:10456000007F49494941007F09090901003E41494D
:10457000497A007F0808087F0000417F4100002041
:1045800040413F01007F08142241007F40404040ED
:10459000007F020C027F007F0408107F003E414133
:1045A000413E007F09090906003E4151215E007F1E
:1045B000091929460046494949310001017F010195
:1045C000003F4040403F001F2040201F003F403838
:1045D000403F006314081463000708700807006177
:1045E0005149454300007F41410000552A552A5555
:1045F000000041417F0000040201020400404040ED
:104600004040000001020400002054545478007F10
:104610004844443800384444442000384444487FE7
:1046200000385454541800087E0901020018A4A44C
:10463000A47C007F080404780000447D4000004012
:1046400080847D00007F102844000000417F4000EE
:10465000007C04180478007C080404780038444482
:10466000443800FC242424180018242418FC007C5E
:104670000804040800485454542000043F444020D7
:10468000003C4040207C001C2040201C003C40306E
:10469000403C004428102844001CA0A0A07C0044FA
:1046A00064544C441414141414140000000000004A
:1046B00000000000000000000000000000F8000002
:1046C0000000000000333000000000100C06100C49
:1046D0000600000000000000000040C07840C078E4
:1046E0004000043F04043F040400007088FC0830CC
:1046F0000000001820FF211E0000F008F000E01864
:10470000000000211C031E211E0000F0088870001C
:1047100000001E2123241927211010160E0000006E
:1047200000000000000000000000000000E018048D
:104730000200000000071820400000020418E000FA
:1047400000000040201807000000404080F080403A
:1047500040000202010F01020200000000F0000010
:1047600000000101011F0101010000000000000024
:10477000000080B070000000000000000000000099
:104780000000000101010101010100000000000022
:1047900000000030300000000000000000008060D9
:1047A0001804006018060100000000E0100808105E
:1047B000E000000F102020100F00001010F8000083
:1047C00000000020203F202000000070080808881A
:1047D00070000030282422213000003008888848EA
:1047E00030000018202020110E000000C02010F81A
:1047F000000000070424243F240000F808888808EB
:1048000008000019212020110E0000E010888818EF
:104810000000000F112020110E0000380808C838D1
:1048200008000000003F00000000007088080888B1
:104830007000001C222121221C0000E0100808103A
:10484000E0000000312222110F00000000C0C00073
:104850000000000000303000000000000080000078
:104860000000000080600000000000008040201078
:104870000800000102040810200040404040404071
:1048800040000404040404040400000810204080D4
:104890000000002010080402010000704808080809
:1048A000F0000000003036010000C030C828E810D9
:1048B000E0000718272423140B000000C038E00094
:1048C0000000203C23020227382008F888888870DE
:1048D0000000203F202020110E00C03008080808EA
:1048E0003800071820202010080008F808080810D1
:1048F000E000203F202020100F0008F88888E808FA
:104900001000203F20202320180008F88888E8089D
:104910001000203F200003000000C03008080838C5
:10492000000007182020221E020008F808000008D6
:10493000F808203F210101213F20000808F808085D
:1049400000000020203F2020000000000808F80898
:104950000800C08080807F00000008F888C0281808
:104960000800203F20012638200008F80800000039
:104970000000203F20202020300008F8F800F8F840
:104980000800203F003F003F200008F830C000082A
:10499000F808203F200007183F00E0100808081022
:1049A000E0000F10202020100F0008F80808080869
:1049B000F000203F210101010000E010080808106C
:1049C000E0000F18242438504F0008F888888888A1
:1049D0007000203F2000030C302000708808080879
:1049E00038000038202121221C00180808F8080887
:1049F00018000000203F2000000008F80800000810
:104A0000F808001F202020201F000878880000C818
:104A10003808000007380E010000F80800F8000808
:104A2000F800033C0700073C030008186880806812
:104A3000180820302C03032C30200838C800C83850
:104A400008000000203F2000000010080808C838B7
:104A500008002038262120201800000000FE020255
:104A600002000000007F40404000000C30C0000009
:104A70000000000000010638C00000020202FE0033
:104A80000000004040407F000000000004020202DD
:104A90000400000000000000000000000000000012
:104AA00000008080808080808080000202040000FE
:104AB00000000000000000000000000080808080F6
:104AC00000000019242222223F2008F800808000E4
:104AD0000000003F112020110E00000000808080A7
:104AE0000000000E112020201100000000808088AE
:104AF000F800000E112020103F20000080808080F0
:104B00000000001F222222221300008080F08888EB
:104B100088180020203F2020000000008080808036
:104B20008000006B94949493600008F8008080806B
:104B30000000203F210000203F20008098980000C6
:104B400000000020203F20200000000000809898F6
:104B5000000000C08080807F000008F80000808096
:104B60008000203F24022D302000000808F80000BB
:104B700000000020203F2020000080808080808076
:104B80008000203F20003F20003F80800080808008
:104B90000000203F210000203F2000008080808016
:104BA0000000001F202020201F0080800080800047
:104BB000000080FFA12020110E00000000808080F6
:104BC0008000000E112020A0FF8080808000808067
:104BD000800020203F212000010000008080808094
:104BE00080000033242424241900008080E0808089
:104BF00000000000001F20200000808000000080D6
:104C00008000001F202020103F2080808000008036
:104C1000808000010E300806010080800080008046
:104C200080800F300C030C300F00008080008080EB
:104C300080000020312E0E31200080808000008016
:104C4000808080818E7018060100008080808080C6
:104C500080000021302C2221300000000000807CE8
:104C6000020200000000003F404000000000FF0082
:104C7000000000000000FF0000000002027C800035
:104C800000000040403F0000000000060101020259
:104C900004040000000000000000EF01FFFFFFFF20
:104CA0000100073C030101000049EF01FFFFFFFF86
:104CB0000100073C020404020050EF01FFFFFFFF68
:104CC0000100073C02020202004C0000BA918C0273
:104CD000A5000000313233343536000000000000FA
:104CE000313233343536000000000000000000008F
:104CF00000000000000000000000000000000000B4
:104D000000000000000000000000000000000000A3
:104D10000000000000000000000000000000000093
:104D20002A412A41000000000000000000000000AD
:104D30000000000000000000000000000000000073
:104D40000000000000000000000000000000000063
:104D50000000000000000000000000000000000053
:104D6000626C75656F6E230000000000000000009B
:104D70000000000000000000000000000000000033
:104D80000000000000000000000000000000000023
:104D90000000000000000000000000000000000013
:104DA0006C6F6773686F77230000000000000000DD
:104DB00000000000000000000000000000000000F3
:104DC00000000000000000000000000000000000E3
:104DD00000000000000000000000000000000000D3
:104DE0003031323334353637383941424344454621
:104DF000403058003031323334353637383961621B
:104E0000636465664030780004000008000000001C
:104E10000000000200010000100000003C4E0008ED
:104E200000000020440F0000C4010008A85400083E
:104E3000440F00205C090000280200081200012035
:104E40000501020304040006110607080900010019
:104E50000F1004244484649C40300FC808082818AC
:104E600020F01010080601824C20180601061820B8
:104E7000408020100A404042CC0000FC04020403A1
:104E80001104FC61F00F40201F20404F4442407F3E
:104E90004244434040100B8060F80704E42424247B
:104EA000FF040311E40441000D10FF008081452937
:104EB000112F414181818010050000FE2201410532
:104EC00001111E100580601F02010007117F020200
:104ED00042827F9F000F132010EC27F42CE0002269
:104EE000920ED2221E40000D11093F89FF000A09CF
:104EF00009FF09090840040D102CE7242400E22CC6
:104F000020BF2028E660000F120101017F211180DF
:104F10004F20100F10204FC013F88801000912080D
:104F200008FF08090AC808C0F40D0010201F8040BF
:104F30002116182641F8A01005080808F8040408EE
:104F4000111010FF101010F0C0040E1230101F08C6
:104F50008848300E014080403FA04004301E103E83
:104F6000031110109E140D81814121110D030103C5
:104F70000D11218105117F100902FA02FE4020D88F
:104F8000177F01114220078047300F1067BF0804C8
:104F90001208162140293F1006445454547F040A35
:104FA000104420040D1200007F201000FF1515157D
:104FB0005595C0000F1088681FC80810C85452D1FA
:104FC000129408D080080E12091909FF0500FF127B
:104FD00092FF005F80013D2503000415E21CE01BE9
:104FE0001C07804020100C0329030C0610030C3012
:104FF00040800003FC10108C4404E40495A6442473
:10500000148444940C60030C0E1202027A41414352
:10501000427E42424243F88003000D1184E45C4426
:10502000C40002F2828282FE60240702017F101017
:105030003FE7040411084888C135BC000B109000FC
:105040003F48484444444270601C0544827F014507
:10505000032249010E11FF0003180530AC63104410
:105060002B090E480D10BF0374062267221292BF4F
:105070000510C05005808082920111BF0D122004DE
:10508000040E4F22241048807F0408182422404038
:10509000801B00007659C00213F042130F04012256
:1050A000FF050A130FFF3008EF246448487F4804C7
:1050B0000D10A0043DBF0305183F49C037809E0175
:1050C00002129E9F19C01B94841E1F0F146A050EA6
:1050D0004F8400031C05101014D43E030C0711FC70
:1050E000525252D312800310094040505755555523
:1050F0007F040711575080000F1040445465C66468
:10510000544400FC4444C442201C0920124A827FBB
:10511000020A928704061200000C0F101060028C25
:1051200000109252321E3252921280030810140460
:10513000047E0100211840807F0830040931C02D11
:10514000B9042DC6040D1121031E809B06113D25B7
:10515000470F1120200104080E134020F807F0A08B
:10516000904C5724A4544C200C0C13FF001F809229
:10517000524929241208800311010C0714FC403005
:10518000CC0B0801031D7F040F181008C0042F80EA
:10519000FEB8033105071100F8221DB303300520C6
:1051A000BF403FC30E124F81040C0F11FE225A86DE
:1051B00020102824E32428102020FF06040B1104CB
:1051C0000827110D41817F01053F3D81051C090222
:1051D000F2929A969292F2E9060D12C0060C0B1109
:1051E00040201744847C040417205F052F80807FB3
:1051F000063388FF060D11C003000D132020100890
:10520000040201FF01020408A00C0D120018161080
:10521000D0B897909090929441060C0D1120108C6C
:10522000838041462810284443400515801EFC1702
:105230000321C50F110202C1071C092060201F10A5
:1052400090402381080405157E8083E0000004144B
:105250001212123F3D80031F20275C080A13273FCC
:10526000100A00102C2424A4A465A6220C041024E7
:10527000A434C0051B40493A0408121452897F0423
:105280000A11A04D00092A00460F1484FCC3042D06
:10529000C103133F40010C044F41407040052DC035
:1052A000040C0C132480E49C105454FF547C10C054
:1052B00004040C11512618274445455F454544E038
:1052C000000C1220FC2426A52C342424FC20E00C05
:1052D0000D12427D44447C4445447D46457C400457
:1052E0002D000A0C0712504EC8487FC83F054D00DC
:1052F0000A0C0B15504C4340404F50505C40C008C6
:10530000240600F2121AD6C40D12C0081C040F089D
:105310000840090F13180740090C0E11404424A43B
:10532000948C84FF848C94A42440081577435F4AAE
:105330000107115F4040200A20222A2AAA6A3A2E39
:1053400029010511E039FD3255010E14FF220853E1
:10535000E2820109147F45FB41010E1178800B1E8A
:105360000402082A3CA11DFE0A0E1004000B1D7C3D
:10537000031E00790A0C051409094989BE081C049A
:105380000202C2E00A32FE8505103F2500527F046A
:10539000061240004D80080C0A152010E82724E46E
:1053A000342CE080082D060B0312093F835D0003B7
:1053B0001DFD0B0E1404000C1501000C101088408C
:1053C00023190101091123C01E1C043E22E2BB0B5C
:1053D0001E3E01060D1361061C088141310F4181FB
:1053E00041F9084D07060D1380060D19400A3D804E
:1053F000060D1A40071E0C9C071C06040506040433
:10540000A0070712140C41124101227F050D15BFA0
:10541000081C04F112147D080C04121412F1FD038F
:10542000F8104030000339414145594141730008AB
:10543000303E1C04905234C1092C06345280708FC7
:105440008106FDE00A1C08829A566322528E0807E4
:105450000C0411330C33800D35001C0424242F431D
:105460000D1FE42F890C0D1380070C0B4FFF110942
:105470000719090749917F400D2DC10C1F08083EEF
:105480000A0D14BF07314152010103170300013215
:10549000FF013DAE0E2E05AB0E0008700A0B0C0D81
:0854A0000E0F0001ED820E0069
:040000050800018965
:00000001FF
